:020000040800F2
:10000000900C002045010008BD270008812200084F
:10001000B927000809030008CD39000800000000D6
:100020000000000000000000000000004530000853
:10003000B903000800000000852E00080131000807
:100040005F0100085F0100085F0100085F01000810
:100050005F0100085F0100085F0100085F01000800
:100060005F0100085F0100085F0100085F010008F0
:100070005F0100085F0100085F0100085F010008E0
:100080005F0100085F0100085F0100085F010008D0
:100090005F0100085F0100085F0100085F010008C0
:1000A0005F0100085F0100085F0100085F010008B0
:1000B0005F0100085F0100085F0100085F010008A0
:1000C0005F0100085F0100085F0100085F01000890
:1000D0005F0100085F0100086D3900085F0100083A
:1000E0005F0100085F0100085F0100085F01000870
:1000F0005F0100085F0100085F0100085F01000860
:100100005F0100085F0100085F0100085F0100084F
:10011000953500085F0100085F0100085F010008D5
:100120005F0100085F0100085F0100085F0100082F
:10013000DFF80CD000F084F80048004729400008A0
:10014000900C00200648804706480047FEE7FEE77F
:10015000FEE7FEE7FEE7FEE7FEE7FEE7FEE7FEE777
:100160007131000831010008202A04DB203A21FA0D
:1001700002F00021704721FA02F3D040C2F12002C0
:100180009140084319467047D2B201E000F8012BB4
:10019000491EFBD270470022F6E710B513460A4607
:1001A00004461946FFF7F0FF204610BD30B505465E
:1001B0002A460B4612F8010B13F8014B08B1A04276
:1001C000F8D01CB1002802D06D1CF1E7284630BDE4
:1001D000421C10F8011B0029FBD1801A70472DE941
:1001E000F05F0546002092469B46884606468146BB
:1001F00040241BE02846414647462246FFF7B4FF0D
:1002000053465A46C01A914110D311461846224609
:1002100000F028F82D1A67EB01084F46224601200E
:10022000002100F01FF817EB00094E41201EA4F139
:100230000104DFDC484631462A464346BDE8F09FCC
:10024000064C074D06E0E06840F0010394E8070023
:1002500098471034AC42F6D3FFF76EFF7C57000886
:100260009C570008202A04DB203A00FA02F1002003
:1002700070479140C2F1200320FA03F319439040E4
:100280007047000008B51D4840781C49097840EACD
:100290000120ADF800001948C0781849897840EA73
:1002A0000120ADF802001648007828B902226946FC
:1002B000144804F0CDFE1FE011480078012806D153
:1002C000022269460F48001D04F0C2FE14E00C48EB
:1002D0000078022806D1022269460A48083004F054
:1002E000B7FE09E006480078032805D102226946D6
:1002F00004480C3004F0ACFE08BD000018000020DB
:100300000B0000200090000800BFFEE700B585B09C
:100310000020019002900390049000BF1048806973
:1003200040F008000E4988610846806900F0080026
:10033000009000BF00BF012251030A4800F028FED0
:100340004FF4005001900120029000200390022001
:10035000049001A9034800F073FC05B000BD000043
:1003600000100240000C014070B505460C46002606
:10037000284602F0ABFD064626EA0401284603F0B3
:100380004DFB70BD01B5322301226946014801F0E1
:100390000DFF08BD0C03002010B5AF20054909680A
:1003A000086440F6B83000F065FB32200149096866
:1003B000086410BD280800207047000010B5012116
:1003C0000248007800F0B8F810BD00000B000020D3
:1003D000704700000021074AD1610749096941F0CF
:1003E0000401054A11611146096941F0400111619A
:1003F0007047000070080020002002400021074ADA
:10040000D1610749096941F00201054A11611146AC
:100410004861096941F0400111617047700800208E
:10042000002002400022054BDA61054A126942F0C1
:100430000102034B1A610180704700007008002020
:100440000020024000201E49C96801F0100139B1A6
:100450001C49C96941F002011A4AD16140F01000FB
:100460001749C96801F0040139B11649C96941F059
:100470000101144AD16140F004001149C96901F039
:10048000010169B10F49C96941F004010D4AD16107
:1004900000BF0B49C96921F00101094AD16100BFC0
:1004A00000BF40F20111884206D10549C96921F017
:1004B0000101034AD16101E00149C86000BF7047F2
:1004C000002002407008002070B5044600F066FD70
:1004D000054609E0601C38B124B100F05FFD401B07
:1004E000A04201D9032070BD1248C06800F001008D
:1004F0000028EFD10F48C06800F0200020B100BFF5
:1005000020200C49C86000BF0A48C06800F01000F5
:1005100048B90848C06900F0010020B90548C06822
:1005200000F0040018B1FFF78DFF0120DBE7002089
:10053000D9E70000002002402DE9F04104460D46B5
:1005400002F0ABFD02F080FD012002F0A0FD0720CB
:1005500002F0ABFD0C2002F0B2FD2012FFF712FFFB
:10056000E0B2FFF70FFF2812FFF70CFFE8B2FFF72A
:1005700009FF142000EB2420E1B2084400EB252001
:10058000E9B200EB0108404602F078FD4FF4FA6052
:1005900001F028FF07460FB17E7A00E0FF263046C3
:1005A000BDE8F0812DE9F041054602F076FD02F04C
:1005B0004BFD012002F06BFD042002F076FD0220CD
:1005C00002F07DFD2846FFF7DDFEEF1D384602F004
:1005D00055FD4FF4FA6001F005FF06460EB1747A3E
:1005E00000E0FF242046BDE8F08170B502F055FD23
:1005F00002F02AFD012002F04AFD032002F055FD21
:10060000012002F05CFD0526304602F037FD4FF474
:10061000FA6001F0E7FE05460DB16C7A00E0FF24B8
:10062000204670BD10B5044602F037FD02F00CFD07
:100630000120FFF7A7FE0020FFF7A4FE0020FFF730
:10064000A1FEC82000F016FA12480078F8B1002088
:100650001049087010480078EF2818D10E484078EB
:10066000012814D10C488079072810D10A488078D5
:1006700000060949C97800EB01400749097900EBF8
:1006800001200549497908442060002010BD01205F
:10069000FCE7000013000020180100202DE9F047BE
:1006A00081460D4616461F4602F0F7FC02F0CCFCD0
:1006B000012002F0ECFC082002F0F7FC1B2002F005
:1006C000FEFC4846FFF75EFE2812FFF75BFEE8B22D
:1006D000FFF758FE3012FFF755FEF0B2FFF752FE5B
:1006E00009F1240000EB2520E9B2084400EB2620A4
:1006F000F1B200EB010A504602F0C0FC4FF4FA6080
:1007000001F070FE0446A4B194F80980E07AA17A61
:1007100000EB01203880398808A003F0E3F9607B02
:10072000217B00EB01207880798807A003F0DAF9BB
:1007300001E04FF0FF084046BDE8F0877061676553
:1007400049443A25640D0A006D61746873636F72E1
:10075000653A25640D0A000070B502F09EFC02F0B7
:1007600073FC012002F093FC032002F09EFC0320A6
:1007700002F0A5FC0726304602F080FC4FF4FA6038
:1007800001F030FE05460DB16C7A00E0FF242046F2
:1007900070BD70B502F081FC02F056FC012002F041
:1007A00076FC032002F081FC052002F088FC09267B
:1007B000304602F063FC4FF4FA6001F013FE054688
:1007C0000DB16C7A00E0FF24204670BD2DE9F041A8
:1007D00006460C4602F061FC02F036FC012002F0F5
:1007E00056FC062002F061FC062002F068FC304650
:1007F000FFF7C8FD2012FFF7C5FDE0B2FFF7C2FD0D
:1008000006F10D0000EB2420E1B200EB01084046A8
:1008100002F034FC4FF4FA6001F0E4FD07460FB13A
:100820007D7A00E0FF252846BDE8F0812DE9F04102
:10083000064602F032FC02F007FC012002F027FC21
:10084000032002F032FC1D2002F039FC212738463B
:1008500002F014FC4FF4FA6001F0C4FD044634B118
:10086000657AE07AA17A00EB0120308000E0FF2574
:100870002846BDE8F0810146002291F821000228B7
:1008800008D00420886300BF002081F8200000BF4A
:10089000012070470868006820F00E000B6818609F
:1008A0000868006820F001000B68186091F840307B
:1008B00001209840CB6B5860012081F8210000BFD7
:1008C000002081F8200000BF1046E2E770B5044622
:1008D000002594F82100022803D00420A0630125FC
:1008E000C1E02068006820F00E00216808602068E0
:1008F000006820F00100216808605C492068884297
:1009000052D95A4978392068884201D1012047E0FC
:10091000564964392068884201D1102040E053498B
:1009200050392068884201D1801539E04F493C395F
:100930002068884201D1801432E04C49283920686F
:10094000884202D14FF480302AE0484914392068A7
:10095000884202D14FF4801022E044492068884246
:1009600001D140041CE042492068884201D10120A5
:1009700016E03F4914312068884201D110200FE071
:100980003B4928312068884201D1801508E0384968
:100990003C312068884201D1801401E04FF480305E
:1009A0003349091F086051E030497839206888428E
:1009B00001D1012047E02D4964392068884201D1E6
:1009C000102040E0294950392068884201D1801523
:1009D00039E026493C392068884201D1801432E050
:1009E000224928392068884202D14FF480302AE019
:1009F0001E4914392068884202D14FF4801022E049
:100A00001A492068884201D140041CE01849206836
:100A1000884201D1012016E015491431206888422E
:100A200001D110200FE0124928312068884201D1FD
:100A3000801508E00E493C312068884201D18014BD
:100A400001E04FF48030094980394860012084F882
:100A5000210000BF002084F8200000BF606B10B1AF
:100A60002046616B8847284670BD00008000024028
:100A70000804024070B5044600F090FA0646254688
:100A8000681C10B104480078054400BF00F086FAE5
:100A9000801BA842FAD370BD380000202DE9F04138
:100AA00004460E460127002500BF2648007E012887
:100AB00002D10220BDE8F08101202249087600BF62
:100AC0002068022813D14CF25030FFF7FDFC90BB98
:100AD0000120FFF77FFC4CF25030FFF7F5FC074692
:100AE0001948006920F004001749086123E04CF21E
:100AF0005030FFF7E9FCF0B94FF0FF303060A568E7
:100B000012E02846FFF77AFC4CF25030FFF7DCFC8D
:100B100007460D48006920F002000B4908610FB13B
:100B2000356007E005F50065D4E9021001EBC0204F
:100B3000A842E6D800BF00BF00200249087600BFE7
:100B40003846B7E7700800200020024003480069DB
:100B500040F08000014908610020704700200240F9
:100B60002DE9FE4F05468B46174698460126002480
:100B70000020029000BF2448007E012802D10220FC
:100B8000BDE8FE8F01202049087600BF4CF25030AE
:100B9000FFF79AFC064686BB012D02D10120029088
:100BA00006E0022D02D10220029001E00420029012
:100BB00000241EE02201B946C24648465146FFF7CE
:100BC000D3FA80B20190022000FB04B0009001999A
:100BD000FFF728FC4CF25030FFF776FC06460B4836
:100BE000006920F001000949086106B104E0601CB9
:100BF000C4B202988442DDDB00BF00BF002002497E
:100C0000087600BF3046BBE7700800200020024095
:100C100000200849096901F0800151B10649054ADF
:100C20005160064951601146096901F0800101B126
:100C3000012070470020024023016745AB89EFCDBA
:100C40002DE9F847024600239C467BE14FF001085E
:100C500008FA03F4D1F8008008EA0400A0427DD12C
:100C6000DFF8F4A2D1F80480A8EB0A09D0453AD005
:100C700014DCB8F1030F50D009DCB8F1000F31D00B
:100C8000B8F1010F1CD0B8F1020F49D120E0B8F142
:100C9000110F18D0B8F1120F42D11EE0B9F5881F1C
:100CA00025D006DCB9F5803F20D0B9F5801F37D1BB
:100CB0001AE0B9F5001F18D0B9F5041F30D117E0BC
:100CC000D1F80CC02DE0D1F80C8008F1040C28E01C
:100CD000D1F80C8008F1080C23E0D1F80C8008F161
:100CE0000C0C1EE000BF00BF00BF00BF00BF00BF74
:100CF000D1F80880B8F1000F02D14FF0040C0BE0DE
:100D0000D1F80880B8F1010F03D14FF0080C14613D
:100D100002E04FF0080C546103E04FF0000C00E0DB
:100D200000BF00BFFF2801D8904601E002F104088F
:100D30004646FF2802D84FEA830803E0A3F10808DB
:100D40004FEA88084746D6F800804FF00F0909FAA5
:100D500007F928EA09080CFA07F900E07AE048EAFE
:100D60000908C6F80080D1F8048008F08058B8F16E
:100D7000805F6FD100BFDFF8E481D8F8188048F0B9
:100D80000108DFF8D891C9F81880C846D8F818804B
:100D900008F00108CDF8008000BF00BF4FEAB93865
:100DA0004FEA930958F829504FEA83784FEA1879A7
:100DB0004FF00F0808FA09F825EA0805DFF8A081C6
:100DC000424502D14FF0000824E0DFF89881424507
:100DD00002D14FF001081DE0DFF88C81424502D1BD
:100DE0004FF0020816E0DFF88481424502D14FF04F
:100DF00003080FE0DFF87881424502D14FF0040884
:100E000008E0DFF87081424502D14FF0050801E0AB
:100E10004FF006084FEA83794FEA197908FA09F882
:100E200048EA0505DFF850814FEA930948F8295050
:100E3000D1F8048008F48038B8F5803F0BD1DFF892
:100E40003C81D8F8008048EA0008DFF83091C9F802
:100E500000800AE075E0DFF82481D8F8008028EAF5
:100E60000008DFF81891C9F80080D1F8048008F470
:100E70000038B8F5003F0ED1DFF8008108F1040812
:100E8000D8F8008048EA0008DFF8F09009F104097A
:100E9000C9F800800DE0DFF8E48008F10408D8F814
:100EA000008028EA0008DFF8D49009F10409C9F8A5
:100EB0000080D1F8048008F48018B8F5801F0ED1A6
:100EC000DFF8B88008F10808D8F8008048EA000880
:100ED000DFF8A89009F10809C9F800800DE0DFF8F3
:100EE0009C8008F10808D8F8008028EA0008DFF89C
:100EF0008C9009F10809C9F80080D1F8048008F441
:100F00000018B8F5001F0ED1DFF8708008F10C084A
:100F1000D8F8008048EA0008DFF8609009F10C0971
:100F2000C9F800800DE0DFF8548008F10C08D8F80B
:100F3000008028EA0008DFF8449009F10C09C9F89C
:100F400000805B1CD1F8008028FA03F8B8F1000F8C
:100F50007FF47CAEBDE8F88700001110001002405D
:100F600000080140000C0140001001400014014045
:100F700000180140001C014008000140000401402D
:100F8000024693680B400BB1012000E0002070473F
:100F90000AB1016101E00B04036170470148006878
:100FA00070470000300000200348006803490978BA
:100FB00008440149086070473000002038000020D4
:100FC00010B50848006840F010000649086003208A
:100FD00000F0A8F8002000F007F800F02BF800203F
:100FE00010BD00000020024070B504460E48007895
:100FF0004FF47A71B1FBF0F00C490968B1FBF0F5E0
:10100000284600F00BFC08B1012070BD102C07D25F
:1010100000222146501E00F047F80548046001E018
:101020000120F2E70020F0E7380000203C0000201B
:101030003400002008B500BF1148806940F001006D
:101040000F4988610846806900F00100009000BFE8
:1010500000BF00BF0846C06940F08050C861084624
:10106000C06900F08050009000BF00BF00BF05497C
:10107000486820F0E06040F00070486000BF08BDA4
:10108000001002400000014001460846002809DB2C
:1010900000F01F0301229A4043099B0003F1E02363
:1010A000C3F8002100BF70472DE9F05F80460D4670
:1010B0001646002702F03AFD074639462A463346CF
:1010C00001F00700C0F1070ABAF1040F02D94FF08E
:1010D000040A01E0C0F1070AD14600F1040ABAF19E
:1010E000070F02D24FF0000A01E0A0F1030AD44634
:1010F0004FF0010A0AFA09FAAAF1010A0AEA020AF9
:101100000AFA0CFA4FF0010B0BFA0CFBABF1010BD6
:101110000BEA030B4AEA0B042146404602F00EFD9F
:10112000BDE8F09F00BF00F00702064B19684FF6BC
:10113000FF031940044B0B4343EA0221014B1960A2
:1011400000BF70470CED00E00000FA0570B50446E2
:101150000D460CB9012070BD5A48006800F0070028
:10116000A8420ED25748006820F00700284355498E
:1011700008600846006800F00700A84201D001207E
:10118000E9E7207800F0020002281DD1207800F065
:101190000400042805D14C48406840F4E0604A4906
:1011A0004860207800F00800082805D146484068CB
:1011B00040F46050444948604348406820F0F000E3
:1011C000A168084340494860207800F0010078B3E6
:1011D0006068012806D13C48006800F4003090B9EE
:1011E0000120B8E76068022806D13748006800F09F
:1011F000007040B90120AEE73348006800F00200FB
:1012000008B90120A7E73048406820F00300616872
:1012100008432D494860FFF7C1FE064609E0FFF785
:10122000BDFE801B41F28831884202D9032092E73B
:1012300007E02548406800F00C006168B0EB810FC2
:10124000EDD12048006800F00700A8420ED91D48E3
:10125000006820F0070028431A4908600846006823
:1012600000F00700A84201D0012074E7207800F0C8
:101270000400042807D11448406820F4E060E168C5
:10128000084311494860207800F00800082808D178
:101290000D48406820F46050216940EAC1000A49C5
:1012A000486000F03FF808494968C1F30311074A54
:1012B000515CC8400649086006480068FFF794FE84
:1012C000002048E700200240001002406457000858
:1012D0003C000020340000200148006870470000F6
:1012E0003C00002000B5FFF7F7FF04494968C1F34F
:1012F0000221034A515CC84000BD000000100240BA
:101300007457000800B5FFF7E7FF04494968C1F3C7
:10131000C221034A515CC84000BD000000100240D9
:1013200074570008F0B585B00FF26C0C9CE8E01023
:1013300001A8A0E8E0101CA52D680095002100225E
:10134000002300240020194D696801F00C05F5B157
:10135000042D02D0082D19D101E0154819E001AD86
:10136000C1F38346AC5D01F4803555B10F4D6D6816
:10137000C5F340451DF805200D4D6543B5FBF2F35F
:1013800002E00C4D04FB05F3184602E000BF0848DC
:1013900000BF00BF05B0F0BD020304050607080941
:1013A0000A0B0C0D0E0F101001020000001002407D
:1013B00000127A0000093D00F8B504460CB901207E
:1013C000F8BD207800F00100002878D0F848406887
:1013D00000F00C0004280CD0F548406800F00C0028
:1013E000082811D1F248406800F48030B0F5803F01
:1013F0000AD1EF48006800F4003000285FD0606830
:1014000000285CD10120DBE700BF6068B0F5803FB9
:1014100006D1E748006840F48030E549086028E0DC
:10142000606858B9E248006820F48030E0490860FC
:101430000846006820F4802008601AE06068B0F573
:10144000A02F0BD1DA48006840F48020D84908600A
:101450000846006840F4803008600AE0D44800681C
:1014600020F48030D24908600846006820F48020CB
:10147000086000BF606888B1FFF790FD054606E090
:10148000FFF78CFD401B642801D9032098E7C8486A
:10149000006800F400300028F2D010E0FFF77EFD75
:1014A000054606E0FFF77AFD401B642801D90320BA
:1014B00086E7BF48006800F400300028F2D12078A9
:1014C00000F00200022857D1B948406800F00C0033
:1014D00050B1B748406800F00C00082818D1B44853
:1014E000406800F4803098B9B148006800F002000C
:1014F00020B12069012801D0012061E7AC480068D3
:1015000020F0F800616940EAC100A949086033E0B1
:101510002069E8B10120A7490860FFF73FFD0546B3
:1015200006E0FFF73BFD401B022801D9032047E7F7
:101530009F48006800F002000028F2D09C48006834
:1015400020F0F800616940EAC1009949086013E0A1
:10155000002098490860FFF721FD054606E0FFF7E7
:101560001DFD401B022801D9032029E7904800688F
:1015700000F002000028F2D1207800F008000828CE
:101580002DD1A069B8B101208B490860FFF706FD95
:10159000054606E0FFF702FD401B022801D90320A3
:1015A0000EE78348406A00F002000028F2D00120D4
:1015B00001F06AFC13E000207F490860FFF7EEFCB1
:1015C000054606E0FFF7EAFC401B022801D903208C
:1015D000F6E67748406A00F002000028F2D1207851
:1015E00000F00400042873D100277148C06900F09E
:1015F000805070B900BF6E48C06940F080506C499F
:10160000C8610846C06900F08050009000BF00BF6C
:1016100001276A48006800F48070B0B96748006824
:1016200040F4807065490860FFF7B8FC054606E0A5
:10163000FFF7B4FC401B642801D90320C0E65F48D3
:10164000006800F480700028F2D000BFE068012834
:1016500006D15748006A40F001005549086227E06A
:10166000E06858B95248006A20F001005049086209
:101670000846006A20F00400086219E0E0680528C6
:101680000BD14B48006A40F0040049490862084603
:10169000006A40F0010008620AE04548006A20F054
:1016A0000100434908620846006A20F0040008620D
:1016B00000BFE068A0B1FFF771FC054609E0FFF745
:1016C0006DFC401B41F28831884202D9032077E645
:1016D00022E03748006A00F002000028EFD012E054
:1016E000FFF75CFC054608E0FFF758FC401B41F2A1
:1016F0008831884201D9032062E62D48006A00F053
:1017000002000028F0D1012F05D12948C06920F03E
:1017100080502749C86100BFE069C8B324484068C9
:1017200000F00C00082860D0E069022848D10020B1
:1017300020490866FFF732FC054606E0FFF72EFC5D
:10174000401B022801D903203AE61948006800F03E
:1017500000700028F2D1206AB0F5803F07D114480C
:10176000406820F40030A168084311494860D4E97A
:10177000080108430E49496821F4741108430C49D3
:10178000486001200B490866FFF708FC054607E0A2
:101790003DE0FFF703FC401B022801D903200FE6C0
:1017A0000348006800F000700028F2D02FE000002D
:1017B000001002400000424280044242007000409B
:1017C000002014490866FFF7E9FB054606E0FFF72D
:1017D000E5FB401B022801D90320F1E50E48006813
:1017E00000F000700028F2D111E0E069012800D17A
:1017F000E6E50948466806F48031206A814204D152
:1018000006F47011606A814201D00120D8E5002001
:10181000D6E50000000042420010024070B50446C8
:101820002546681EB0F1807F01D301200FE0681EBD
:101830004FF0E02148610F214FF0FF3002F07EF9B8
:1018400000204FF0E021886107200861002070BD72
:1018500030B502460B4600BF92F83C00012801D18A
:10186000022030BD012082F83C0000BF022082F837
:101870003D00106844681068816824F0700418689E
:10188000044310684460144D1068A84213D0134DEF
:101890001068A8420FD01068B0F1804F0BD0104DE7
:1018A0001068A84207D00F4D1068A84203D00E4D13
:1018B0001068A84205D121F08001586801431068E2
:1018C0008160012082F83D0000BF002082F83C00CA
:1018D00000BF00BFC5E70000002C014000340140FC
:1018E0000004004000080040000C004010B586B025
:1018F0000446002002900390049005900E49206851
:10190000884216D100BF0D48806940F008000B499D
:1019100088610846806900F00800019000BF00BFA0
:101920004815029002200390059002A90448FFF791
:1019300087F906B010BD000000080040001002400A
:10194000000C014070B504460D46164600BF94F8E1
:101950003C00012801D1022070BD012084F83C0028
:1019600000BF36B1042E1BD0082E31D00C2E5ED114
:1019700045E02946206801F087FC2068806940F036
:101980000800216888612068806920F004002168CF
:10199000886120688069296908432168886147E077
:1019A0002946206801F0A8FC2068806940F40060A6
:1019B000216888612068806920F4806021688861DE
:1019C00020688069296940EA0120216888612FE048
:1019D0002946206801F0CEFC2068C06940F008006C
:1019E0002168C8612068C06920F004002168C861CE
:1019F0002068C069296908432168C86118E0294640
:101A0000206801F0F3FC2068C06940F400602168A0
:101A1000C8612068C06920F480602168C8612068BE
:101A2000C069296940EA01202168C86100E000BF5F
:101A300000BF00BF002084F83C0000BF00BF8BE760
:101A400010B504460CB9012010BD94F83D0028B92A
:101A5000002084F83C00204600F026F8022084F89C
:101A60003D00211D206801F0AFFB012084F84600F5
:101A700000BF84F83E0001213F2001554020015560
:101A80004120015500BF00BF012084F842004320DF
:101A90000155442001554520015500BF012084F81F
:101AA0003D000020D0E7000008B5094A01689142D6
:101AB0000DD100BF0749C96941F00401054AD16150
:101AC0001146C96901F00401009100BF00BF08BDC3
:101AD000000800400010024070B504460D4615B9DC
:101AE00094F83E000BE0042D02D13F20005D06E09B
:101AF000082D02D14020005D01E04120005D012859
:101B000001D0012070BD1DB9022084F83E000EE016
:101B1000042D03D102213F20015508E0082D03D1F7
:101B200002214020015502E00221412001550122FD
:101B30002946206801F096FB1F492068884203D09F
:101B40001E492068884201D1012000E0002028B110
:101B50002068406C40F400402168486416492068C1
:101B6000884213D01549206888420FD02068B0F110
:101B7000804F0BD012492068884207D01149206855
:101B8000884203D01049206888420CD120688068C0
:101B900000F00706062E0CD02068006840F0010017
:101BA0002168086005E02068006840F001002168B5
:101BB00008600020A6E70000002C0140003401402E
:101BC0000004004000080040000C004070477047CF
:101BD00010B504462068C06820F490702168C86081
:101BE0002068406920F0010021684861206B0128CD
:101BF00005D12068C06820F010002168C860206806
:101C0000406900F04000E8B12068406920F04000E1
:101C100021684861A06B50B11048A16B4863A06B6C
:101C2000FEF754FEC0B1A06B416B884714E0002062
:101C3000E085202084F83E00002020632046FFF746
:101C4000C6FF09E00020E085202084F83E00002047
:101C500020632046FFF7BBFF002010BDC9350008F8
:101C600038B504460A492068884210D100BF0020D8
:101C7000009020680068009020684068009000BFD5
:101C800000BF4FF4FA720349034800F06DFA38BD03
:101C9000004C0040180100200C0300202DE9F84FF3
:101CA0000446206805682068C668206847694FF0C8
:101CB0000009CA4605F00F09B9F1000F0AD105F075
:101CC000200038B106F0200020B1204601F0B5FC1C
:101CD000BDE8F88FB9F1000F71D007F0010018B915
:101CE00006F4907000286AD005F0010030B106F4C7
:101CF000807018B1206C40F00100206405F00400F1
:101D000030B107F0010018B1206C40F002002064EF
:101D100005F0020030B107F0010018B1206C40F06E
:101D20000400206405F0080048B106F0200010B956
:101D300007F0010018B1206C40F008002064206C0E
:101D400068B305F0200028B106F0200010B120464D
:101D500001F073FC20684069C0F3801A206C00F029
:101D6000080010B9BAF1000F22D0204601F03AFC69
:101D70002068406900F04000B0B12068406920F060
:101D8000400021684861A06B50B15648A16B486380
:101D9000A06BFEF79BFD10B1A06B416B88470CE078
:101DA0002046FFF75DFF08E02046FFF759FF04E0FB
:101DB0002046FFF755FF0020206489E7FFE7206BEE
:101DC000012878D105F01000002874D006F010002A
:101DD000002870D000BF00200090206800680090AC
:101DE00020684068009000BF00BF2068406900F094
:101DF0004000C0B3A06B006840681FFA80F8B8F1DB
:101E0000000F2FD0A08D40452CDDA4F82E80A06BB4
:101E1000806920281FD02068C06820F48070216865
:101E2000C8602068406920F001002168486120688E
:101E3000406920F0400021684861202084F83E007D
:101E4000002020632068C06820F010002168C8606E
:101E5000A06BFEF710FDA08DE28D801A81B22046A6
:101E6000FFF7B4FE34E7FFE7A08DE18D401A1FFABB
:101E700080F8E08DE8B1B8F1000F1AD02068C06892
:101E800020F490702168C8602068406920F001004B
:101E900021684861202084F83E00002020632068EB
:101EA000C06820F010002168C86041462046FFF756
:101EB0008DFE0DE7FFE705F0800030B106F08000F1
:101EC00018B1204601F0D3FC02E705F0400030B124
:101ED00006F0400018B1204601F09FFBF8E600BF75
:101EE000F6E60000B535000810B504460CB901202F
:101EF00010BDA06900B100E000BF94F83D0028B912
:101F0000002084F83C00204600F028F8242084F8C3
:101F10003D002068C06820F400502168C860204659
:101F200001F0FEFB2068006920F490402168086100
:101F30002068406920F02A00216848612068C06854
:101F400040F400502168C86000202064202084F8FC
:101F50003D0084F83E000020CAE7000010B586B0BE
:101F60000446002002900390049005907549206873
:101F7000884237D100BF7448C06940F400207249DC
:101F8000C8610846C06900F40020019000BF00BF8E
:101F900000BF0846806940F01000886108468069EB
:101FA00000F01000019000BF00BF08150290022051
:101FB00003900320059002A96448FEF741FE4FF408
:101FC0000060029000200390049002A95F48FEF791
:101FD00037FE032211463420FFF766F83420FFF75E
:101FE00053F8ADE05A492068884236D100BF5648C0
:101FF000C06940F400305449C8610846C06900F423
:102000000030019000BF00BF00BF0846806940F06B
:10201000040088610846806900F00400019000BF58
:1020200000BF04200290022003900320059002A923
:102030004848FEF705FE0820029000200390049017
:1020400002A94448FEF7FCFD002205212620FFF7E7
:102050002BF82620FFF718F872E03F4920688842E5
:102060002FD100BF3848C06940F480203649C8618C
:102070000846C06900F48020019000BF00BF00BF87
:102080000846806940F0080088610846806900F0D1
:102090000800019000BF00BF0815029002200390C5
:1020A0000320059002A92D48FEF7CAFD4FF40060F9
:1020B000029000200390049002A92848FEF7C0FD7A
:1020C0003EE02749206888423AD100BF1E48C069D7
:1020D00040F480101C49C8610846C06900F48010B3
:1020E000019000BF00BF00BF0846806940F01000AB
:1020F00088610846806900F01000019000BF00BFB1
:1021000000BF0846806940F0200088610846806969
:1021100000F02000019000BF00BF88140290022050
:1021200003900320059002A90848FEF789FD0420CA
:10213000029000200390049002A90A48FEF780FD57
:1021400006B010BD004C00400010024000100140DD
:10215000004400400008014000480040000C0140DD
:10216000005000400014014070B504460D4616466C
:1021700094F83E00202816D105B10EB9012070BD9B
:1021800000BF94F83C00012801D10220F7E70120AC
:1021900084F83C0000BF00202063324629462046D8
:1021A00001F03CFBEBE70220E9E770472DE9F84F2F
:1021B00004460E46174699464FF0000A94F83D0033
:1021C00020285AD106B117B90120BDE8F88F00BF09
:1021D00094F83C00012801D10220F6E7012084F8A0
:1021E0003C0000BF00202064212084F83D00FEF761
:1021F000D5FE8246A784E784A068B0F5805F04D14D
:10220000206910B90025B04602E035464FF00008BD
:1022100000BF002084F83C0000BF1BE053460022B2
:1022200080212046CDF8009001F051FB08B1032039
:10223000CBE745B9B8F80000C0F308002168486052
:1022400008F1020803E02878216848606D1CE08CE2
:10225000401EE084E08C0028E0D15346002240215B
:102260002046CDF8009001F032FB08B10320ACE726
:10227000202084F83D000020A7E70220A5E7704752
:1022800000BFFEE730B58DB004460D4609A92846CB
:1022900001F054FB09AB224604A101A801F032FC75
:1022A00001A800F047F80DB030BD000025732C25C3
:1022B000730D0A0010B58CB00446224604A168468E
:1022C00001F020FC684600F035F80CB010BD0000AD
:1022D000464143455F4641494C2C25730D0A000099
:1022E00010B588B00446224604A1684601F00AFCF5
:1022F000684600F01FF808B010BD00004641434595
:102300005F4F4B2C25640D0A0000000030B589B0EA
:1023100004460D462B46224604A101A801F0F2FB1B
:1023200001A800F007F809B030BD000025732C2586
:10233000640D0A0070B505462846FDF749FF86B2D0
:10234000C823324629460E48FFF730FF044624B919
:1023500029460CA001F0C6FB11E0032C04D129464C
:102360000DA001F0BFFB0AE0022C04D1294611A008
:1023700001F0B8FB03E0294614A001F0B3FB70BDE7
:102380009403002055415254332053454E44204F6E
:102390004B3A2025730000005541525433205345D9
:1023A0004E442054494D454F55543A2025730D0A4B
:1023B0000000000055415254332053454E44204202
:1023C0005553593A2025730D0A00000055415254C7
:1023D000332053454E44204552524F523A202573E4
:1023E0000D0A00007CB50546EF208DF800000120A5
:1023F0008DF8010018480068000E8DF8020016489C
:102400000068000C8DF8030013480088000A8DF85E
:102410000400114800788DF8050007208DF80600AB
:1024200000208DF8070010E00120FEF723FB0B4889
:10243000007850B100200949087069460848FDF746
:10244000B5FE04460CB120467CBD681E80B2051E58
:10245000EAD100BFF8E700001400002013000020BC
:102460001801002000B585B0002001900290039073
:10247000049000BF0C48806940F010000A49886150
:102480000846806900F01000009000BF00BF0F20D8
:102490000190002002900120039001A90348FEF75B
:1024A000CFFB05B000BD000000100240001001404D
:1024B00010B5002401212A48FEF762FD78B91420E6
:1024C000FEF7D8FA01212648FEF75AFD38B900BFB9
:1024D00001212348FEF754FD0028F9D001240221F0
:1024E0001F48FEF74DFD78B91420FEF7C3FA02210C
:1024F0001B48FEF745FD38B900BF02211848FEF71A
:102500003FFD0028F9D0022404211548FEF738FDCC
:1025100078B91420FEF7AEFA04211148FEF730FD19
:1025200038B900BF04210E48FEF72AFD0028F9D073
:10253000032408210A48FEF723FD78B91420FEF78A
:1025400099FA08210648FEF71BFD38B900BF08219B
:102550000348FEF715FD0028F9D00424204610BDDD
:102560000010014010B50446412C25D10821084631
:10257000FDF7FAFE3D21112001F050FA86211720C7
:1025800001F04CFA7F21262001F048FA1E212D206F
:1025900001F044FA00212C2001F040FA8D212A207C
:1025A00001F03CFA3E212B2001F038FA012001F025
:1025B0001FFD00F0A5FA01E0FF2010BD0020FCE7A0
:1025C00008B500BF1348806940F0200011498861B8
:1025D0000846806900F02000009000BF00BF00BFE7
:1025E0000846806940F0040088610846806900F070
:1025F0000400009000BF00BF00BF0846806940F0A3
:10260000080088610846806900F00800009000BF5B
:1026100000BF08BD0010024000B589B0002007903F
:1026200008901C216846FDF7B6FD18481849086057
:1026300040F2CF20486000211548816040F2CF7100
:10264000C160002101618161FFF7FAF908B1FDF76E
:10265000BFFE00200790089007A90D48FFF7F8F883
:1026600008B1FDF7B5FE60200090002001900290B7
:1026700004900C2269460648FFF764F908B1FDF79B
:10268000A7FE0348FFF732F909B000BD000800407B
:102690002808002010B51348134908604FF4614022
:1026A0004860002110488160C16001610C214161D6
:1026B00000218161C161FFF717FC08B1FDF788FEB9
:1026C0004FF4FA7209490848FFF74EFD08B1FDF7CB
:1026D0007FFE05480068C06840F0100002490968A4
:1026E000C86010BD004C00400C0300201801002001
:1026F00010B50B480B4908604FF4E13048600021E9
:1027000008488160C16001610C2141610021816143
:10271000C161FFF7E9FB08B1FDF75AFE10BD0000EB
:1027200000500040D803002010B51348134908603A
:102730004FF4E1304860002110488160C1600161C0
:102740000C21416100218161C161FFF7CDFB08B11E
:10275000FDF73EFE09480068C06840F020000749C8
:102760000968C86005480068406940F001000349F5
:102770000968486110BD000000440040500300207B
:1027800010B50B480B4908604FF4E1304860002158
:1027900008488160C16001610C21416100218161B3
:1027A000C161FFF7A1FB08B1FDF712FE10BD0000EB
:1027B000004800409403002000BFFEE7704770B55A
:1027C00000240EE00021204600F0CFF8002504E0B0
:1027D000002000F07FF9681CC5B2802DF8DB601C7A
:1027E000C4B2082CEEDB70BD00B585B000200190AE
:1027F00002900390049000BF0F48806940F0800071
:102800000D4988610846806900F08000009000BF93
:1028100000BF012203210948FEF7BAFB0320019003
:1028200001200290002003900320049001A9034896
:10283000FEF706FA05B000BD00100240001C014082
:1028400070B5054600240DE08021214101EA050014
:1028500000F01EF9012000F009F9002000F006F94F
:10286000601CC4B2082CEFDB012000F0FFF8002050
:1028700000F0FCF870BD10B5012000F009F901204E
:1028800000F0F4F8002000F003F9002000F0EEF86A
:1028900010BD10B5002000F0FBF8012000F0E6F8B4
:1028A000012000F0F5F810BD70B5002406E0002509
:1028B00000E06D1CB5F57A7FFBD3641CB4F57A7F1C
:1028C000F5D3FFF791FFAE2000F0F4F8D52000F02B
:1028D000F1F8802000F0EEF8A82000F0EBF83F209F
:1028E00000F0E8F8D32000F0E5F8002000F0E2F86E
:1028F000402000F0DFF8A12000F0DCF8C82000F054
:10290000D9F8DA2000F0D6F8122000F0D3F88120B0
:1029100000F0D0F8CF2000F0CDF8D92000F0CAF8B0
:10292000F12000F0C7F8DB2000F0C4F8302000F000
:10293000C1F8A42000F0BEF8A62000F0BBF88D205E
:1029400000F0B8F8142000F0B5F8AF2000F0B2F8AD
:10295000FFF735FF70BD10B50246012000E050437F
:102960000B1EA1F10101FAD110BD70B505460C4650
:1029700045F0B00000F09EF8102141EA141000F07C
:1029800099F804F00F0000F095F870BD2DE9F041C2
:1029900005460E461746721ED206110E6A1E5206D4
:1029A000100EFFF7E2FF002409E0A7F12001134A0F
:1029B00002EB0111085D00F08DF8601CC4B2082C18
:1029C000F3DB721ED206110E6A1E012303EB4202D4
:1029D000D0B2FFF7CAFF00240BE0A7F12001074A9D
:1029E00002EB011204F10801505C00F073F8601C66
:1029F000C4B2082CF1DBBDE8F0810000745100087E
:102A00002DE9F04780460E4617461D46002415E086
:102A1000281B411E0A20FFF79EFFB7FBF0F00A219A
:102A2000B0FBF1F201FB120000F130093019C1B224
:102A30004A464046FFF7AAFF601CC4B2AC42E7DB3F
:102A4000BDE8F0872DE9F04107460E461546002403
:102A500007E02A5D3019C1B23846FFF797FF601CC6
:102A6000C4B2285D0028F4D1BDE8F08110B5044659
:102A70002CB1012211460548FEF78AFA04E0002233
:102A800001210248FEF784FA10BD0000001C01403D
:102A900010B504462CB1012202210548FEF778FA50
:102AA00004E0002202210248FEF772FA10BD000085
:102AB000001C014010B50446FFF7DDFE7820FFF74B
:102AC000BFFE0020FFF7BCFE2046FFF7B9FEFFF770
:102AD000E0FE10BD10B50446FFF7CDFE7820FFF7ED
:102AE000AFFE4020FFF7ACFE2046FFF7A9FEFFF740
:102AF000D0FE10BD10B503211420FDF735FC10BD2C
:102B000010B5142000F0E2F9044604F0030018B9EF
:102B10000321142000F0E6FA10BDF0B587B0054699
:102B2000002708210846FDF71FFC00210D2000F0BA
:102B300075FF80210E20FDF717FC93208DF804000F
:102B400020208DF8050006A801AB022201A9009003
:102B50000C2000F01AF8064686B9002407E001A808
:102B6000005D285501A8005D4740601CC4B2042CDC
:102B7000F5DB01A8005DB84200D0FE2680210E20C2
:102B800000F0B0FA304607B0F0BD2DE9FE4F064622
:102B9000884691469A46DDF830B0FE20029000202B
:102BA000019000900C2E06D00E2E09D1122001901B
:102BB0001020009005E0772001903020009000E088
:102BC00000BF00BF019840F08001022000F026FF06
:102BD00080210420FDF7C8FB0021012000F01EFF2A
:102BE00080210A2000F07EFA002505E018F8051083
:102BF000092000F013FF6D1C4D45F7D3314601202D
:102C000000F00CFF0C2E03D180210D2000F06AFA99
:102C10004FF4FA6500BF042000F058F904466D1E19
:102C200035B104F0010018B9009820400028F2D016
:102C300080210D20FDF798FB95B3062000F046F9A2
:102C400000F01B0068BB002002900198204000F0BB
:102C5000010008B1FF2002900C2E24D10A2000F0C0
:102C600035F904460C2000F031F900F007072FB1C8
:102C7000601E07EBC000CBF8000002E0E000CBF8DC
:102C8000000004B90124122C00DD1224002505E007
:102C9000092000F01BF90AF805006D1CA542F7D3C6
:102CA00001E0FE20029080210C2000F01BFA0021A0
:102CB000012000F0B3FE0298BDE8FE8F00B585B09C
:102CC0000020019002900390049000BF3848806972
:102CD00040F48070364988610846806900F480704D
:102CE000009000BF00BF00BF0846806940F01000A0
:102CF00088610846806900F01000009000BF00BFA6
:102D000000BF0846806940F0040088610846806979
:102D100000F00400009000BF00BF00BF08468069BB
:102D200040F0080088610846806900F008000090C3
:102D300000BF00BF00224FF4A0711E48FEF728F923
:102D400001224FF481411B48FEF722F94FF4005055
:102D5000019000200290039001A91648FDF770FF32
:102D60004020019001200290002003900220049056
:102D700001A91048FDF764FF4FF480700190012015
:102D80000290002003900320049001A90948FDF758
:102D900057FF4FF4814001900120029000200390E2
:102DA0000320049001A90348FDF74AFF05B000BDC8
:102DB000001002400020014070B588B005460C4666
:102DC00008210846FDF7D0FA07210D2000F026FE65
:102DD0000321142000F086F98DF8085007A802ABF3
:102DE000012202A900900C20FFF7CFFE06464EB943
:102DF0000798102806D19DF8080020709DF809005A
:102E0000607000E0FE26304608B070BD10B50122AB
:102E100040211B48FEF7BCF8012001F0E9F8002230
:102E200040211748FEF7B4F8012001F0E1F8012233
:102E300040211348FEF7ACF80A2001F0D9F802202F
:102E400000F044F80F21012000F0E8FD3D211120A1
:102E500000F0E4FD1E212D2000F0E0FD00212C20DB
:102E600000F0DCFD8D212A2000F0D8FD3E212B2032
:102E700000F0D4FD4021152000F0D0FD002010BD51
:102E8000002001407047000008B508490968C908DA
:102E90004FF47A72B1FBF2F14143009100BF00BFE1
:102EA00000994A1E00920029F9D108BD3C0000207B
:102EB00010B5FFF703FFFFF7A9FFFFF71BFEFFF7B2
:102EC0001FFE4120FFF74EFB10BD00002DE9F04131
:102ED00006460025002280212948FEF759F87E2069
:102EE00000EA460040F0800708241DE000224FF46D
:102EF00080712348FEF74CF807F0800028B10122CA
:102F000091031F48FEF744F805E000224FF480418A
:102F10001B48FEF73DF8012211021948FEF738F868
:102F20007806070E601EC4B2002CDFDC082417E010
:102F300000224FF480711248FEF72AF86806050E49
:102F4000012211020E48FEF723F84FF400510C48FD
:102F5000FEF716F8012801D145F00105601EC4B244
:102F6000002CE5DC012280210548FEF711F8012242
:102F700011020348FEF70CF82846BDE8F081000076
:102F80000020014008B502226946294802F04CF8A9
:102F9000BDF80000001227490870BDF80000487015
:102FA000BDF8020000128870BDF80200C87002224D
:102FB00069461F48001D02F037F8BDF800000012F6
:102FC0001D490870BDF800004870BDF802000012ED
:102FD0008870BDF80200C8700222694614480830A3
:102FE00002F022F8BDF80000001214490870BDF884
:102FF00000004870BDF8020000128870BDF80200A1
:10300000C870022269460A480C3002F00DF8BDF87B
:10301000000000120A490870BDF800004870BDF8B1
:10302000020000128870BDF80200C87008BD0000E0
:10303000009000082000002024000020280000202C
:103040002C0000207047000010B50B490968080EDD
:10305000FDF798F908480068C0F30740FDF792F9BA
:1030600005480088C0F30720FDF78CF9024908786D
:10307000FDF788F910BD00001400002010B50446CB
:103080002012FDF77FF9E0B2FDF77CF910BD10B515
:1030900004462046FDF776F910BD10B5EF20FDF788
:1030A00071F90120FDF76EF910BD10B50446C4F3A7
:1030B0000720FDF767F9E0B2FDF764F910BD10B520
:1030C00004462046FDF75EF910BD000010B50C2146
:1030D0000348FEF701FD322001490968086410BD6C
:1030E0002808002070B505460C4600262846FFF744
:1030F000EDFE064646EA0401284600F08FFC70BD4E
:1031000010B5FDF751FF10BD00B58FB0282105A8FF
:10311000FDF741F814216846FDF73DF801200590C0
:1031200000040690002007900120099002200C90D6
:10313000C1030D914FF4E0110E9105A8FEF73CF983
:1031400008B1FDF745F90F20009002200190002002
:1031500002904FF4806003900020049002216846A2
:10316000FDF7F4FF08B1FDF733F90FB000BD000023
:103170001148006840F001000F49086008464068A7
:103180000E4908400C494860084600680C49084050
:10319000094908600846006820F480200860084655
:1031A000406820F4FE0048604FF41F008860C803A8
:1031B0000449086070470000001002400000FFF85A
:1031C000FFFFF6FE08ED00E010B50268204B9842C4
:1031D0000ED0204B98420BD0B0F1804F08D01E4B40
:1031E000984205D01D4B984202D01D4B984203D106
:1031F00022F070024B681A43154B98420ED0154BC3
:1032000098420BD0B0F1804F08D0134B984205D0B4
:10321000124B984202D0124B984203D122F44072D2
:10322000CB681A4322F080034C6943EA040202602F
:103230008B68C3620B688362054B984202D0054BD2
:10324000984201D10B6903630123436110BD000063
:10325000002C014000340140000400400008004000
:10326000000C004030B501F01F05012404FA05F3FD
:10327000046A9C430462046A01F01F0502FA05F522
:103280002C43046230BD000030B5056A25F001050D
:103290000562026A4368846924F0700424F0030420
:1032A0000D682C4322F002028D682A43104DA8427B
:1032B00000D103E00F4DA84206D100BF22F0080262
:1032C000CD682A4322F00402094DA84202D0094DDC
:1032D000A84207D123F4807323F400734D692B4374
:1032E0008D692B43436084614D684563026230BD44
:1032F000002C01400034014030B5056A25F010056E
:103300000562026A4368846924F4E04424F440744A
:103310000D6844EA052422F020028D6842EA051275
:10332000124DA84200D103E0114DA84207D100BFC1
:1033300022F08002CD6842EA051222F040020B4DD5
:10334000A84202D00A4DA84209D123F4806323F495
:1033500000634D6943EA85038D6943EA8503436051
:1033600084614D688563026230BD0000002C01401D
:103370000034014030B5056A25F480750562026AA3
:103380004368C46924F0700424F003040D682C43DE
:1033900022F400728D6842EA0522124DA84200D143
:1033A00003E0114DA84207D100BF22F40062CD68AE
:1033B00042EA052222F480620A4DA84202D00A4D58
:1033C000A84209D123F4805323F400534D6943EA02
:1033D00005138D6943EA05134360C4614D68C563F5
:1033E000026230BD002C01400034014030B5056A56
:1033F00025F480550562036A4468C26922F4E042FC
:1034000022F440720D6842EA052223F400538D68CD
:1034100043EA0533084DA84202D0084DA84204D122
:1034200024F480444D6944EA85144460C2614D68C7
:103430000564036230BD0000002C014000340140EF
:1034400070B54F4C247854B9EF2807D14C4C2578EF
:103450002478641C4A4E34704A4C605570BD484C08
:103460002478012C18D1AA2808D1454C2578247835
:10347000641C434E3470434C60550CE00024404DB6
:103480002C70EF2807D12C4625782478641C3C4EFC
:1034900034703C4C6055E1E7394C25782478641C45
:1034A000374E3470374C605534462478072C00DA98
:1034B000D4E7344CA4781CB10024314D2C70CDE7F6
:1034C000304CE47824062F4D2D7944EA05442D4DE7
:1034D0006D7944EA05242B4DAD7944EA05010022BB
:1034E000042901D10C220BE0022901D10A2207E0B4
:1034F000234C2478102C02D30024214D2C70ADE7EE
:103500001F4C2478944200DAA8E71E4CE479122C70
:1035100003D000241A4D2C70A0E70023022405E0FC
:10352000184D2D5D1D44EBB2651CECB2551EA54235
:10353000F6DC541E134D2C5D9C4203D00024104D2C
:103540002C708BE70F4C247A0F4D2C704FF6FF74C4
:103550000E4D2C8004290AD10B4C24783CB9094C1F
:10356000A47A084D6D7A44EA0524084D2C80012484
:10357000074D2C700024024D2C7000BF6EE7000038
:103580001200002008010020030000200400002099
:103590000200002010B5064800680068C0F3001063
:1035A00010B1034800F014FA0148FEF777FB10BD94
:1035B0000C03002070B505466C6A0020E085E084AD
:1035C0002046FEF74DFB70BD70B505466C6A0020C5
:1035D000E085202084F83E00002020632046FEF78E
:1035E000F6FA70BD0168C96821F490710268D16073
:1035F0000168496921F0010102685161016B0129EB
:1036000005D10168C96821F010010268D16020214C
:1036100080F83E1000210163704710B50446206811
:10362000C06820F040002168C860202084F83D0078
:103630002046FEF724FE002010BDF8B5044694F89D
:103640003E00222869D1A068B0F5805F0CD12069C6
:1036500050B90025A66A20684068C0F30800308091
:10366000A06A801CA06215E0A56A0026A068B0F5DB
:10367000805F03D0A06828B9206918B92068406825
:10368000287004E02068406800F07F002870A06A7D
:10369000401CA062E08D401E80B2E085A8BB20687F
:1036A000C06820F020002168C8602068C06820F44D
:1036B00080702168C8602068406920F0010021689E
:1036C0004861202084F83E00206B01281ED1002094
:1036D00020632068C06820F010002168C86020685E
:1036E000006800F0100010280AD100BF00200090F0
:1036F00020680068009020684068009000BF00BF0C
:10370000A18D2046FEF762FA03E004E02046FEF7B2
:103710004CFD0020F8BD0020FCE70220FAE7000085
:1037200070B504462168096921F44051E2681143EB
:10373000226811612269A1681143626941EA0205A8
:103740002168C96841F20C62914329432268D16023
:103750002168496921F44071A269114322685161CD
:103760002D4A2168914202D1FDF7CCFD01E0FDF721
:10377000B9FD00EBC00101EB001162689200B1FBE2
:10378000F2F100EBC00202EB001263689B00B2FB97
:10379000F3F26423B2FBF3F202EBC20303EB021277
:1037A000A1EB8201322202EB01116422B1FBF2F1A2
:1037B00001F0F00100EBC00202EB001263689B0015
:1037C000B2FBF3F26423B2FBF3F201EB021200EB63
:1037D000C00101EB001163689B00B1FBF3F100EB4A
:1037E000C00303EB00136668B600B3FBF6F3642670
:1037F000B3FBF6F303EBC30606EB0313A1EB830164
:10380000322303EB01116423B1FBF3F101F00F014B
:1038100011442268916070BD0038014010B5034624
:1038200099629A85DA8500201864222083F83E0088
:1038300000BF002083F83C0000BF1868C06840F457
:1038400080701C68E0601868406940F001001C68E6
:1038500060611868C06840F020001C68E06018686B
:10386000C06840F010001C68E060002010BD0146F8
:1038700091F83D00212828D18868B0F5805F0BD1F0
:10388000086948B90A6A1088C0F308000B685860D4
:10389000086A801C086205E00B6A581C08621878E8
:1038A0000B685860C88C401E80B2C88458B908683C
:1038B000C06820F080000B68D8600868C06840F0DD
:1038C00040000B68D860002070470220FCE72DE91B
:1038D000F04104460D4617469846069E21E0701CAE
:1038E000F8B12EB1FDF75AFBA0EB0800B04218D991
:1038F0002068C06820F4D0702168C86020684069E2
:1039000020F0010021684861202084F83D0084F8FF
:103910003E0000BF002084F83C0000BF0320BDE84B
:10392000F081206800682840A84201D1012000E011
:103930000020B842D3D00020F1E700007CB5044657
:103940000D46E078A178CDE900106378227802A1D5
:10395000284600F0D7F87CBD253032582530325843
:1039600025303258253032580000000038B515484F
:1039700000680068C0F3C00058B9124800680068C9
:10398000C0F3400028B90F4800680068C0F3800009
:1039900040B10D48006800900B48001D0068009081
:1039A00000BF00BF074800680068C0F3401038B18E
:1039B0000548001D0068C4B22046FFF741FD00BF66
:1039C00038BD0000500300200044004000BFFEE767
:1039D00038B5044600BF002000900D48006800681C
:1039E00000900B4800684068009000BF00BF084886
:1039F000C08DC0F5FA70074908702046FEF7E8F858
:103A00004FF4FA7204490248FEF7AEFB38BD0000DD
:103A10000C03002013000020180100202DE9F041C4
:103A200006460D4600224FF480712D48FDF7B0FA8E
:103A3000002280212A48FDF7ABFA7E2000EA4607E3
:103A400008241DE007F0800028B1012291032448DA
:103A5000FDF79EFA05E000224FF480412048FDF773
:103A600097FA012211021E48FDF792FA7806070E16
:103A700000224FF480711A48FDF78AFA601EC4B222
:103A8000002CDFDC08241DE005F0800028B10122B5
:103A900091031348FDF77CFA05E000224FF48041C2
:103AA0000F48FDF775FA012211020D48FDF770FA73
:103AB0006806050E00224FF480710948FDF768FA88
:103AC000601EC4B2002CDFDC012280210448FDF717
:103AD0005FFA012211020248FDF75AFABDE8F081AF
:103AE000002001400FB4054B10B503A9044A029809
:103AF00000F048F810BC5DF814FB00000D40000811
:103B00000C0000200FB4084B10B504A902AA0398BA
:103B100000F038F8044602A9002000F064FA2046BC
:103B200010BC5DF814FB0000E73F00080248006885
:103B3000C0F30220704700000CED00E010B5002833
:103B400004DB0A07130E054A135406E00A07140E95
:103B5000034A00F00F031B1FD45410BD00E400E023
:103B600018ED00E002E008C8121F08C1002AFAD1CF
:103B700070477047002001E001C1121F002AFBD1ED
:103B8000704700002DE9FF4F8DB00F460546002617
:103B900006E025280BD0DDE90F1290476D1C761C3E
:103BA00028780028F5D111B03046BDE8F08F002408
:103BB000A246A1460122EC4900E0044315F8013F6A
:103BC000203B02FA03F00842F7D128782A2810D0C7
:103BD0006FF02F022878A0F13001092914D80AEBE0
:103BE0008A0102EB410144F0020400EB010A6D1C62
:103BF000F0E701CF5FEA000A03D544F40054CAF1AC
:103C0000000A44F002046D1C28782E2817D115F8FC
:103C1000010F44F004042A280ED06FF02F022878F8
:103C2000A0F1300109290AD809EB890102EB410111
:103C300000EB01096D1CF2E757F8049B6D1C287816
:103C40006C280FD006DC4C2817D068280DD06A28C5
:103C500014D104E0742810D07A280FD10DE044F478
:103C600000140AE044F4801401E044F4401469783C
:103C7000814202D104F580146D1C6D1C2A786E2AD5
:103C80001FD00CDC632A31D004DC002A8BD0582AE8
:103C900011D1A3E0642A68D0692A0CD165E0732AA7
:103CA0002ED004DC6F2A73D0702A04D19BE0752AD1
:103CB0006FD0782A6ED01046DDE90F129047761C3F
:103CC00050E1C4F30250022806D0032809D004288A
:103CD00001CF09D0066045E101CFF117C0E90061CD
:103CE00040E101CF06803DE106703BE117F8040B8F
:103CF0008DF8000000208DF80100EB46012003E064
:103D000057F804BB4FF0FF3061074FF0000102D4B9
:103D10000DE008F10101884649450FDA8045F8DBDE
:103D20001BF808100029F4D108E008F101018846C9
:103D30008142FADB1BF808100029F6D1DDE90F23D8
:103D4000AAEB08008146214600F036F9304400EB2A
:103D5000080604E0DDE90F121BF8010B9047B8F1EB
:103D60000108F7D221464846F7E00A21C4F302537E
:103D70004FF0000B0891022B04D001CFC117032B89
:103D800009D00AE0FF1D27F00707F7E8020108E065
:103D900032E01FE020E000B2C117042B01D140B295
:103DA000C117031E71F1000307DA4FF0000CD0EBCE
:103DB0000C006CEB01012D2302E0230504D52B231D
:103DC0008DF82430012303E0E30701D02023F7E737
:103DD000984658E00A2110E010210EE010204FF024
:103DE000000B08900CE010214FF0000B44F004048D
:103DF0004FF00809089103E008214FF0000B0891EB
:103E0000C4F30253022B04D001CF0021032B06D0B0
:103E100006E0FF1D27F00707F7E8020103E080B284
:103E2000042B00D1C0B24FF0000823072BD5702A15
:103E300007D0DDF820C08CF0100C5CEA0B0C05D02C
:103E40000EE040238DF82430012308E050EA0103FE
:103E500006D030238DF824308DF825200223984693
:103E6000DDF820C08CF0080C5CEA0B0C0BD150EA9A
:103E7000010301D1630706D530238DF824304FF0BC
:103E80000108A9F10109582A04D038A20B9208AA06
:103E90000A920BE03AA2F9E75B46089AFCF79FF911
:103EA0000B9B9B5C0A9A521E0A92137050EA010205
:103EB000F2D10A98ADEB000000F1200B600702D5AB
:103EC00024F4803401E04FF00109D94502DDA9EB6B
:103ED0000B0000E0002000EB0B0141440890AAEB2E
:103EE000010AE00306D4DDE90F232146504600F025
:103EF00063F806444FF0000908E009A911F8090029
:103F0000DDE90F12904709F10109761CC145F4DB88
:103F1000E0030CD5DDE90F232146504600F04CF8B4
:103F2000064404E0DDE90F1230209047761C089922
:103F3000481E08900029F5DC08E00A980A990078E4
:103F4000491C0A91DDE90F129047761CBBF1000174
:103F5000ABF1010BF1DC21465046DDE90F2300F007
:103F600019F806446D1C1BE6092801003031323374
:103F700034353637383961626364656600000000A5
:103F8000303132333435363738394142434445468F
:103F9000000000002DE9F041044600251E461746AA
:103FA000880404D405E039462020B0476D1C641E07
:103FB000F9D52846BDE8F0812DE9F04104460025F9
:103FC0001E469046C80301D5302700E0202788040C
:103FD00004D505E041463846B0476D1C641EF9D54E
:103FE0002846BDE8F0810A68531C0B6010707047CA
:103FF000002107E0002200E0521C4EF660239A42A6
:10400000FAD3491C8142F5D37047000013B50C4622
:104010004FF6FF73012269460248FEF7C7F8009881
:104020001CBD0000D803002008B5FCF7C9FFFFF74E
:104030006BF8FEF7C5FAFEF7EFFAFCF767F90C210B
:10404000FC48FDF749FDFEF725FBFEF76DFBFEF78B
:1040500097FBFEF74DFBFEF727FCF7A20121084670
:10406000FEF7F0FCF9A201210220FEF7EBFCFEF7BF
:104070001FFFFEF7F7F9FFF729F8002513E064208A
:10408000FCF7F8FC681CC5B20A2D0CDBF4A2012178
:104090000220FEF7D7FC40F2DC50FCF7EBFC0020DE
:1040A000F449087004E0F448FCF7BCFA0028E6D1B3
:1040B00000BF0A2D0BDA0120EE490870EFA20121A2
:1040C0000220FEF7BFFC4FF47A70FCF7D3FCFEF73A
:1040D00059FFEFA201210220FEF7B4FC4FF47A70E1
:1040E000FCF7C8FC002600F0DEBEFEF768FBED48DA
:1040F0000078062880F0D686DFE810F00600E3029C
:104100008D034A049F056106E7A201210846FEF7D8
:1041100099FCD3E2E8480078032829DBFEF74FFB3F
:10412000E6A201210846FEF78DFCE8A2012102204B
:10413000FEF788FCE9A201210320FEF783FC0022A0
:104140004FF40051E948FCF723FF40F2DC50FCF744
:1041500091FC01225103E548FCF71AFF0020D649E3
:104160000870FEF72CFBD0A201210846FEF76AFC7E
:10417000DF480078002876D00020DD490870DD484F
:104180000078F8B90020CC490870FEF718FBDAA2D5
:1041900001210846FEF756FCDBA201210220FEF7B2
:1041A00051FCDCA0FEF7C6F8E0480088FEF798F85E
:1041B0003220FCF75FFCFCF7EFF840F2DC50FCF734
:1041C00059FC7CE2BC480078401CBB490870FEF7F3
:1041D000F6FAD7A201210846FEF734FCC54800785C
:1041E00001280BD1D6A201210220FEF72BFCD6A07C
:1041F000FEF7A0F8DAA0FEF75DF82EE0BD480078E3
:10420000062808D1D8A201210220FEF71BFCDAA063
:10421000FEF750F821E0B7480078072808D1D9A266
:1042200001210220FEF70EFCDAA0FEF743F814E0AD
:10423000B0480078082808D1D9A201210220FEF751
:1042400001FCDBA0FEF736F807E0DCA2012102202A
:10425000FEF7F8FBDCA0FEF72DF840F2DC50FCF78F
:1042600009FC2CE2FFE7FEF723F9D949087008465C
:104270000078012802D18B49087020E2761C47F2B1
:104280003050864202D9FEF713FE0026D149522053
:10429000FEF792FD00287DD10026CF48FEF73DFCB9
:1042A000002878D1CC480078CC49097888422AD1B6
:1042B000C9484078C9494978884224D1C64880789D
:1042C000C649897888421ED1C348C078C349C97895
:1042D000884218D1002078490870FEF770FA86A24B
:1042E00001210846FEF7AEFBBDA201210220FEF728
:1042F000A9FBB949BDA0FDF7C5FFFCF74DF80020AB
:1043000068490870DBE1B4480078BA490978884206
:104310002AD1B1484078B7494978884224D1AE487B
:104320008078B449897888421ED1AB48C078B149B9
:10433000C978884218D100205F490870FEF73FFA1B
:104340006DA201210846FEF77DFBABA201210220F0
:10435000FEF778FBA049A5A0FDF794FFFCF71CF839
:10436000002050490870AAE19B480078A5490978C7
:1043700088422DD198484078A2494978884227D16F
:10438000954880789F498978884221D19248C078A1
:104390009C4901E069E191E1C978884218D1002087
:1043A00045490870FEF70BFA53A201210846FEF7B3
:1043B00049FB95A201210220FEF744FB86498BA010
:1043C000FDF760FFFBF7E8FF00203649087076E153
:1043D000814800788F49097888422AD17E48407800
:1043E0008C494978884224D17B48807889498978EA
:1043F00088421ED17848C0788649C978884218D149
:1044000000202D490870FEF7DAF93BA20121084689
:10441000FEF718FB80A201210220FEF713FB6E4974
:1044200072A0FDF72FFFFBF7B7FF00201D490870B2
:1044300045E1F7E028080020202057656C636F6D88
:104440006520486F6D652120000000002020206C51
:104450006F6164696E672E2E2E2020200000000000
:10446000204153363038204552524F5221202020CF
:1044700000000000060000201400002020415336F8
:104480003038204F4B212020202020200000000029
:104490002020494E4954205355434345535321202E
:1044A00000000000080000202020506C656173654A
:1044B00020756E6C6F636B000700002021212120A6
:1044C0005741524E494E4720212121002053595334
:1044D00054454D204C4F434B4544200020556E61C0
:1044E0007574686F72697A6564212000000C014060
:1044F0000200002003000020556E6C6F636B207378
:1045000075636365737300004661636520756E6C47
:104510006F636B00464143455F44454255472C4518
:104520004E5445525F4F4B0D0A000000040000201E
:10453000556E6C6F636B206661696C65640000008A
:104540004E6F206661636500464143455F444542C6
:1045500055472C454E5445525F4641494C0D0A0083
:104560004E4F5F46414345003244206C69766520DA
:104570006661696C000000004C4956454E45535336
:104580005F3244003344206C697665206661696C53
:10459000000000004C4956454E4553535F334400DC
:1045A00046616365206D69736D6174636800000026
:1045B0004D415443485F4641494C000046616365A4
:1045C000206661696C656400554E4B4E4F574E0036
:1045D000090000201C0000201800002020000020FE
:1045E000636172642049443A2030000043415244E0
:1045F0005F4F4B0024000020636172642049443AFD
:104600002031000028000020636172642049443A90
:10461000203200002C000020636172642049443A7B
:1046200020330000FA480078401CF9490870FEF772
:10463000C6F8AFF2041201210846FEF703FAF5A20C
:1046400001210220FEF7FEF9F6A201210320FEF768
:10465000F9F9F949F9A0FDF715FE40F2DC50FCF735
:1046600009FA0020F849087029E0F8480078012884
:1046700024D14FF6FF700090684600F065FC0446B8
:104680005CB90020E2490870BDF80010F0A0FDF709
:104690003DFE0020EC49087011E0012C01D0022CF5
:1046A0000BD1DB480078401CD9490870EBA0FDF71E
:1046B00041FE0020E449087001E000BF2AE500BF88
:1046C000F0E3FEF77CF8EB480078012806D00228DA
:1046D00019D003282CD0042854D13EE0E6A20121B1
:1046E0000846FEF7AFF9E7A201210220FEF7AAF97A
:1046F000E8A201210320FEF7A5F9EAA20121042086
:10470000FEF7A0F93EE0ECA201210846FEF79AF977
:10471000ECA201210220FEF795F9DEA2012103207F
:10472000FEF790F9DFA201210420FEF78BF929E0C2
:10473000E1A201210846FEF785F9D2A2012102205B
:10474000FEF780F9E3A201210320FEF77BF9D5A251
:1047500001210420FEF776F914E0D7A201210846D2
:10476000FEF770F9C7A201210220FEF76BF9C9A27A
:1047700001210320FEF766F9DAA201210420FEF7E9
:1047800061F900BF00BF43E0FDF792FEDA4908700F
:104790000846007801280BD1B6480078401CB5497E
:1047A000087008460078042801DD0120087030E018
:1047B000D148007802281FD1AE480078012803D1E3
:1047C0000220A149087024E0AA480078022803D1F9
:1047D00003209D4908701CE0A6480078032803D1F7
:1047E00004209949087014E0A248007804280FD1E9
:1047F0000520954908700CE0BF480078032803D0D5
:10480000BD480078042803D100208F49087000E0DB
:10481000BAE700BF46E3FDF7D2FFB8A201210220AC
:10482000FEF710F9B1E0FDF743FEB3490870084602
:10483000007801280BD1B5480078401CB3490870B6
:1048400008460078032812DD002008700FE0AA480F
:104850000078042803D100207B49087096E0A64820
:104860000078032803D10120774908708EE0A7481B
:10487000007828B9A6A201210320FEF7E3F81BE087
:10488000A2480078012805D1A4A201210320FEF747
:10489000D9F811E09D480078022805D1A2A2012193
:1048A0000320FEF7CFF807E098480078032803D1EB
:1048B000A0A20121FEF7C6F8A1495220FEF77CFA1A
:1048C000C0BB5D48FEF729F9A0BB9048007868B9E5
:1048D000594800789B4908705748407848705648B6
:1048E000807888705448C078C87035E08748007870
:1048F00001280DD150480078934908704E484078FF
:1049000048704D48807888704B48C078C87023E064
:104910007E48007802280ED1474800788B490870FD
:104920004548407848704448807888704248C0784C
:10493000C87011E029E07548007803280CD13E4882
:104940000078834908703C48407848703A4880783D
:1049500088703948C078C870FBF794FCFDF72FFFCA
:1049600055A201210220FEF76DF87AA20121032051
:10497000FEF768F840F6B830FCF77CF801203249C1
:10498000087000206149087000E04CE700BF89E230
:10499000FDF715FF72A201210220FEF753F849E14D
:1049A0000024FDF785FD5449087008460078012869
:1049B0000BD156480078401C5449087008460078CE
:1049C00003281ADD0020087017E04B480078022801
:1049D00003D101201C4908700FE0474800780328E4
:1049E00003D101201849087025E1434800780428C4
:1049F00003D10020144908701DE14448007828B90B
:104A00005CA201210320FEF71DF8D5E0B8E000000C
:104A100007000020496E76616C69642063617264EE
:104A200000000000506C656173652074727920612C
:104A30006761696E000000001800002044454E596F
:104A40005F4341524400000008000020060000209F
:104A500046494E4745525F4F4B00000046494E477E
:104A600045525F4641494C2C554E4B4E4F574E0DCB
:104A70000A0000000A0000202D2D3E4164642063DE
:104A8000617264002020204164642066696E67655D
:104A90007200000020202044656C6574652063610D
:104AA0007264000020202044656C6574652066698E
:104AB0006E6765720000000020202041646420635E
:104AC000617264002D2D3E4164642066696E6765E5
:104AD000720000002D2D3E44656C65746520636195
:104AE000726400002D2D3E44656C65746520666916
:104AF0006E6765720000000009000020506C65615F
:104B00007365204164642043617264000B000020DF
:104B100020202043617264203000000020202043C8
:104B20006172642031000000202020436172642003
:104B30003200000020202043617264203300000016
:104B40001C0000202000002024000020280000205D
:104B50002C000020202020737563636573730000B0
:104B60002020706C656173652066696E67657231BF
:104B70000000000020202046696E6765722030002A
:104B8000CA480078012805D1C9A201210320FDF7F8
:104B900059FF11E0C5480078022805D1C7A20121BC
:104BA0000320FDF74FFF07E0C0480078032803D13A
:104BB000C5A20121FDF746FFFBF717FD0446BCBB6C
:104BC0000120FBF7EFFC044694BBFBF70EFD044607
:104BD00074BB0220FBF7E6FC04464CBBFBF7BCFDB4
:104BE00004462CBBFBF7D5FD04460CBBAF4801784F
:104BF0000220FBF7EBFD0446D4B9B648FBF716FEDE
:104C0000FDF7DDFDB4A201210220FDF71BFFAFF28D
:104C1000BC0201210320FDF715FF40F6B830FBF779
:104C200029FF0120B04908700020A049087002E067
:104C3000FFE700BFB4E600BF34E1FDF7C0FDABA263
:104C400001210220FDF7FEFEB6E0FDF731FCAB4985
:104C500008700846007801280BD194480078401C61
:104C6000924908700846007803287CDD002008700F
:104C700079E0A2480078022865D10020A049087098
:104C800048708870C8708948007868B9084600780C
:104C90009C4908709A484078487099488078887094
:104CA0009748C078C87034E08048007801280DD15A
:104CB000934800789449087091484078487090482B
:104CC000807888708E48C078C87022E07748007875
:104CD00002280DD18A4800788C49087088484078AD
:104CE00048708748807888708548C078C87010E020
:104CF0006E48007803280CD18148007884490870F8
:104D00007F48407848707E48807888707C48C078BA
:104D1000C870FBF7B7FAFDF752FD7EA20121022011
:104D2000FDF790FEAFF2D41201210320FDF78AFEB9
:104D300040F6B830FBF79EFE01206B49087000205A
:104D40005A49087039E06D480078032803D10120E2
:104D50006549087031E069480078042803D10020D3
:104D60006149087029E05148007830B9AFF26022FB
:104D700001210320FDF766FE1EE04C480078012863
:104D800006D1AFF2682201210320FDF75BFE13E09C
:104D900046480078022806D1AFF274220121032090
:104DA000FDF750FE08E041480078032804D1AFF237
:104DB0007C220121FDF746FE47E700BF72E0FDF7C8
:104DC000FEFC58A201210220FDF73CFE67E0FDF742
:104DD0006FFB4A4908700846007801280BD1334818
:104DE0000078401C3149087008460078032830DDFF
:104DF000002008702DE041480078022819D1FBF707
:104E0000DDFAFDF7DCFC4CA201210220FDF71AFEC1
:104E1000AFF2C02201210320FDF714FE40F6B830A6
:104E2000FBF728FE01203049087000201F49087058
:104E300036E032480078032803D101202A4908705F
:104E40002EE02E480078042803D10020264908705F
:104E500026E01648007830B9AFF2E822012103209D
:104E6000FDF7F0FD1BE011480078012805D110A2E4
:104E700001210320FDF7E6FD11E00C48007802282F
:104E800005D10EA201210320FDF7DCFD07E0074854
:104E90000078032803D10CA20121FDF7D3FD96E78A
:104EA00000BF00BF00BFFFF720B900000B000020CB
:104EB00020202046696E6765722031002020204640
:104EC000696E67657220320020202046696E676532
:104ED00072203300000000202020416464206669B5
:104EE0006E67657200000000080000202020446505
:104EF0006C657465206361726431000009000020F4
:104F0000180000202000002024000020280000209D
:104F10002C000020202044656C657465206361725C
:104F200064000000202044656C6574652066696E2D
:104F30006765723100000000202044656C6574656F
:104F40002046696E6765720038B504464FF6FF70FB
:104F50002080FBF74AFB0546002D4BD10120FBF7D3
:104F600021FB0546002D45D16B464FF4967200217A
:104F70000120FBF793FB0546002D2ED1BDF8020062
:104F800064281DDDBDF800002080FDF718FC1BA281
:104F900001210846FDF756FD1CA201210220FDF764
:104FA00051FDBDF8002001230C210220FDF728FD52
:104FB000FBF7F2F940F2DC50FBF75CFD002038BD56
:104FC000FDF7FDFB14A201210846FDF73BFD40F271
:104FD000DC50FBF74FFD0120F1E7FDF7F0FB0EA2DF
:104FE00001210846FDF72EFD40F2DC50FBF742FDA3
:104FF0000220E4E74FF0FF30E1E70000556E6C6FF0
:10500000636B2073756363657373000046696E6735
:1050100065722049443A0000556E6C6F636B2066E0
:1050200061696C656400000030B503460C461546A6
:10503000002207E0184600F008F824F812009B1C34
:10504000501C82B2AA42F5DB30BD01460888704789
:105050002DE9F04F85B080468A461746B8F1006FBB
:1050600002D3B8F1406F02D305B0BDE8F08FFBF773
:10507000CFFDA8F1006B4FEA9B25CBF34809C9F59A
:105080000074A74200DC3C4655E04FF0006101EBA4
:1050900085208A142B49FFF7C7FF00260BE009EB98
:1050A0000600284931F810004FF6FF71884200D001
:1050B00003E0701C86B2A642F1DB00BFA64222DAF2
:1050C00000200190012002900490C00600EB852092
:1050D0000390694601A8FBF7E1FC002608E03AF8D6
:1050E000160006EB0901174A22F81100701C86B25F
:1050F000A642F4DB4FF0006101EB85208A141149D0
:1051000000F022F804E022465146404600F01CF828
:10511000A74200D110E06D1C4FF000090AEB440AD1
:1051200008EB4408381B87B2B7F5007F02DD4FF467
:10513000007400E03C46A8E700BFFBF707FD00BF96
:1051400092E70000260400202DE9F04104460E46B7
:10515000174600250AE036F815C0624600232146AE
:105160000120FBF7FDFCA41C681C85B2BD42F2DBEC
:10517000BDE8F08100000000000000000000000019
:1051800000000000000000F80000000000000033F4
:105190003000000000100C06100C0600000000009B
:1051A0000000000040C07840C0784000043F040484
:1051B0003F040400007088FC08300000001820FF45
:1051C000211E0000F008F000E018000000211C0380
:1051D0001E211E0000F00888700000001E212324FC
:1051E0001927211010160E0000000000000000001A
:1051F00000000000000000E01804020000000007AA
:105200001820400000020418E000000000402018B0
:1052100007000000404080F0804040000202010F83
:1052200001020200000000F0000000000101011F67
:1052300001010100000000000000000080B07000CB
:10524000000000000000000000000000000101015B
:1052500001010101000000000000000000303000EA
:1052600000000000000000008060180400601806C4
:105270000100000000E010080810E000000F1020FE
:1052800020100F00001010F8000000000020203F48
:1052900020200000007008080888700000302824D2
:1052A0002221300000300888884830000018202073
:1052B00020110E000000C02010F800000007042498
:1052C000243F240000F808888808080000192120DD
:1052D00020110E0000E0108888180000000F112037
:1052E00020110E0000380808C83808000000003FF0
:1052F000000000000070880808887000001C22214F
:1053000021221C0000E010080810E00000003122FB
:1053100022110F00000000C0C0000000000000309B
:1053200030000000000000800000000000008060ED
:10533000000000000000804020100800000102046E
:105340000810200040404040404040000404040455
:105350000404040000081020408000000020100811
:1053600004020100007048080808F0000000003046
:1053700036010000C030C828E810E00007182724D4
:1053800023140B000000C038E0000000203C230282
:105390000227382008F8888888700000203F2020E5
:1053A00020110E00C0300808080838000718202017
:1053B0002010080008F808080810E000203F20200E
:1053C00020100F0008F88888E8081000203F2020EF
:1053D0002320180008F88888E8081000203F2000E3
:1053E00003000000C030080808380000071820201B
:1053F000221E020008F808000008F808203F2101DA
:1054000001213F20000808F8080800000020203F84
:105410002020000000000808F8080800C0808080F4
:105420007F00000008F888C028180800203F2001ED
:105430002638200008F8080000000000203F202047
:105440002020300008F8F800F8F80800203F003F5E
:10545000003F200008F830C00008F808203F200076
:1054600007183F00E01008080810E0000F10202087
:1054700020100F0008F808080808F000203F21015C
:1054800001010000E01008080810E0000F182424B3
:1054900038504F0008F8888888887000203F200026
:1054A000030C3020007088080808380000382021DC
:1054B00021221C00180808F8080818000000203FE6
:1054C0002000000008F808000008F808001F20204D
:1054D00020201F000878880000C83808000007381E
:1054E0000E010000F80800F80008F800033C07006F
:1054F000073C0300081868808068180820302C03D7
:10550000032C30200838C800C83808000000203FAD
:105510002000000010080808C8380800203826219C
:1055200020201800000000FE020202000000007FA0
:1055300040404000000C30C00000000000000001AE
:105540000638C00000020202FE0000000040404099
:105550007F000000000004020202040000000000BE
:10556000000000000000000000000000808080803B
:105570008080808000020204000000000000000023
:1055800000000000000080808080000000192422BC
:1055900022223F2008F8008080000000003F1120F8
:1055A00020110E000000008080800000000E1120FD
:1055B00020201100000000808088F800000E1120DB
:1055C00020103F200000808080800000001F2222E9
:1055D00022221300008080F0888888180020203F55
:1055E000202000000000808080808000006B949468
:1055F0009493600008F8008080800000203F210024
:1056000000203F2000809898000000000020203FEC
:1056100020200000000000809898000000C08080DA
:10562000807F000008F8000080808000203F240276
:105630002D302000000808F8000000000020203F66
:10564000202000008080808080808000203F20001B
:105650003F20003F8080008080800000203F2100AC
:1056600000203F200000808080800000001F20205C
:1056700020201F00808000808000000080FFA1208B
:1056800020110E000000008080808000000E11209C
:1056900020A0FF80808080008080800020203F212B
:1056A00020000100000080808080800000332424DE
:1056B00024241900008080E0808000000000001F8A
:1056C000202000008080000000808000001F20203B
:1056D00020103F20808080000080808000010E30FC
:1056E0000806010080800080008080800F300C035D
:1056F0000C300F0000808000808080000020312E60
:105700000E312000808080000080808080818E703B
:105710001806010000808080808080000021302CED
:105720002221300000000000807C02020000000006
:10573000003F404000000000FF00000000000000AB
:10574000FF0000000002027C800000000040403F9B
:105750000000000000060101020204040000000035
:10576000000000000000000000000000010203042F
:105770000607080900000000010203049C57000806
:105780000000002040000000643B0008DC570008D7
:1057900040000020500C0000743B0008000000FF97
:1057A000FFFF0000000001000000000000000000FA
:1057B000FFFFFFFF0000000000000000FFFFFFFFF1
:1057C000FFFFFFFFFFFFFFFFFFFFFFFF00000000E5
:0C57D00010000000010000000024F400A4
:0400000508000131BD
:00000001FF
